{
  "_format": "hh-sol-artifact-1",
  "contractName": "MortisVault",
  "sourceName": "contracts/MortisVault.sol",
  "abi": [
    {
      "inputs": [
        {
          "internalType": "address",
          "name": "_beneficiary",
          "type": "address"
        },
        {
          "internalType": "uint256",
          "name": "_triggerWindow",
          "type": "uint256"
        }
      ],
      "stateMutability": "payable",
      "type": "constructor"
    },
    {
      "inputs": [],
      "name": "AlreadyInherited",
      "type": "error"
    },
    {
      "inputs": [],
      "name": "AlreadyTriggered",
      "type": "error"
    },
    {
      "inputs": [],
      "name": "AmountTooLarge",
      "type": "error"
    },
    {
      "inputs": [],
      "name": "DecryptionAlreadyPending",
      "type": "error"
    },
    {
      "inputs": [],
      "name": "DecryptionNotPending",
      "type": "error"
    },
    {
      "inputs": [],
      "name": "HandlesAlreadySavedForRequestID",
      "type": "error"
    },
    {
      "inputs": [],
      "name": "InvalidKMSSignatures",
      "type": "error"
    },
    {
      "inputs": [],
      "name": "NoHandleFoundForRequestID",
      "type": "error"
    },
    {
      "inputs": [],
      "name": "NotOwner",
      "type": "error"
    },
    {
      "inputs": [],
      "name": "NothingToWithdraw",
      "type": "error"
    },
    {
      "inputs": [],
      "name": "TimerNotExpired",
      "type": "error"
    },
    {
      "inputs": [],
      "name": "TransferFailed",
      "type": "error"
    },
    {
      "inputs": [],
      "name": "WindowTooShort",
      "type": "error"
    },
    {
      "inputs": [],
      "name": "WrongRequestId",
      "type": "error"
    },
    {
      "inputs": [],
      "name": "ZeroBeneficiary",
      "type": "error"
    },
    {
      "inputs": [],
      "name": "ZeroDeposit",
      "type": "error"
    },
    {
      "anonymous": false,
      "inputs": [
        {
          "indexed": true,
          "internalType": "uint256",
          "name": "requestID",
          "type": "uint256"
        }
      ],
      "name": "DecryptionFulfilled",
      "type": "event"
    },
    {
      "anonymous": false,
      "inputs": [
        {
          "indexed": true,
          "internalType": "address",
          "name": "from",
          "type": "address"
        },
        {
          "indexed": false,
          "internalType": "uint256",
          "name": "amount",
          "type": "uint256"
        }
      ],
      "name": "Deposited",
      "type": "event"
    },
    {
      "anonymous": false,
      "inputs": [
        {
          "indexed": true,
          "internalType": "address",
          "name": "beneficiary",
          "type": "address"
        },
        {
          "indexed": false,
          "internalType": "uint64",
          "name": "amount",
          "type": "uint64"
        }
      ],
      "name": "Inherited",
      "type": "event"
    },
    {
      "anonymous": false,
      "inputs": [
        {
          "indexed": true,
          "internalType": "address",
          "name": "owner",
          "type": "address"
        },
        {
          "indexed": false,
          "internalType": "uint256",
          "name": "timestamp",
          "type": "uint256"
        },
        {
          "indexed": false,
          "internalType": "uint256",
          "name": "secondsRemaining",
          "type": "uint256"
        }
      ],
      "name": "Pinged",
      "type": "event"
    },
    {
      "anonymous": false,
      "inputs": [
        {
          "indexed": true,
          "internalType": "address",
          "name": "caller",
          "type": "address"
        },
        {
          "indexed": false,
          "internalType": "uint256",
          "name": "requestId",
          "type": "uint256"
        }
      ],
      "name": "TriggerRequested",
      "type": "event"
    },
    {
      "anonymous": false,
      "inputs": [
        {
          "indexed": true,
          "internalType": "address",
          "name": "owner",
          "type": "address"
        },
        {
          "indexed": false,
          "internalType": "uint64",
          "name": "amount",
          "type": "uint64"
        }
      ],
      "name": "Withdrawn",
      "type": "event"
    },
    {
      "inputs": [],
      "name": "beneficiary",
      "outputs": [
        {
          "internalType": "address",
          "name": "",
          "type": "address"
        }
      ],
      "stateMutability": "view",
      "type": "function"
    },
    {
      "inputs": [],
      "name": "cleartextBalanceAtTrigger",
      "outputs": [
        {
          "internalType": "uint64",
          "name": "",
          "type": "uint64"
        }
      ],
      "stateMutability": "view",
      "type": "function"
    },
    {
      "inputs": [],
      "name": "decryptionPending",
      "outputs": [
        {
          "internalType": "bool",
          "name": "",
          "type": "bool"
        }
      ],
      "stateMutability": "view",
      "type": "function"
    },
    {
      "inputs": [],
      "name": "decryptionRequestId",
      "outputs": [
        {
          "internalType": "uint256",
          "name": "",
          "type": "uint256"
        }
      ],
      "stateMutability": "view",
      "type": "function"
    },
    {
      "inputs": [],
      "name": "deposit",
      "outputs": [],
      "stateMutability": "payable",
      "type": "function"
    },
    {
      "inputs": [
        {
          "internalType": "uint256",
          "name": "requestId",
          "type": "uint256"
        },
        {
          "internalType": "bytes",
          "name": "cleartexts",
          "type": "bytes"
        },
        {
          "internalType": "bytes",
          "name": "decryptionProof",
          "type": "bytes"
        }
      ],
      "name": "inheritanceCallback",
      "outputs": [
        {
          "internalType": "bool",
          "name": "",
          "type": "bool"
        }
      ],
      "stateMutability": "nonpayable",
      "type": "function"
    },
    {
      "inputs": [],
      "name": "inherited",
      "outputs": [
        {
          "internalType": "bool",
          "name": "",
          "type": "bool"
        }
      ],
      "stateMutability": "view",
      "type": "function"
    },
    {
      "inputs": [],
      "name": "lastPing",
      "outputs": [
        {
          "internalType": "uint256",
          "name": "",
          "type": "uint256"
        }
      ],
      "stateMutability": "view",
      "type": "function"
    },
    {
      "inputs": [],
      "name": "owner",
      "outputs": [
        {
          "internalType": "address",
          "name": "",
          "type": "address"
        }
      ],
      "stateMutability": "view",
      "type": "function"
    },
    {
      "inputs": [],
      "name": "ping",
      "outputs": [],
      "stateMutability": "nonpayable",
      "type": "function"
    },
    {
      "inputs": [],
      "name": "protocolId",
      "outputs": [
        {
          "internalType": "uint256",
          "name": "",
          "type": "uint256"
        }
      ],
      "stateMutability": "pure",
      "type": "function"
    },
    {
      "inputs": [],
      "name": "requestTrigger",
      "outputs": [],
      "stateMutability": "nonpayable",
      "type": "function"
    },
    {
      "inputs": [],
      "name": "requestWithdraw",
      "outputs": [],
      "stateMutability": "nonpayable",
      "type": "function"
    },
    {
      "inputs": [],
      "name": "secondsUntilTrigger",
      "outputs": [
        {
          "internalType": "uint256",
          "name": "",
          "type": "uint256"
        }
      ],
      "stateMutability": "view",
      "type": "function"
    },
    {
      "inputs": [],
      "name": "triggerWindow",
      "outputs": [
        {
          "internalType": "uint256",
          "name": "",
          "type": "uint256"
        }
      ],
      "stateMutability": "view",
      "type": "function"
    },
    {
      "inputs": [],
      "name": "triggered",
      "outputs": [
        {
          "internalType": "bool",
          "name": "",
          "type": "bool"
        }
      ],
      "stateMutability": "view",
      "type": "function"
    },
    {
      "inputs": [],
      "name": "vaultStatus",
      "outputs": [
        {
          "internalType": "address",
          "name": "_owner",
          "type": "address"
        },
        {
          "internalType": "address",
          "name": "_beneficiary",
          "type": "address"
        },
        {
          "internalType": "bool",
          "name": "_triggered",
          "type": "bool"
        },
        {
          "internalType": "bool",
          "name": "_inherited",
          "type": "bool"
        },
        {
          "internalType": "bool",
          "name": "_decryptionPending",
          "type": "bool"
        },
        {
          "internalType": "uint256",
          "name": "_lastPing",
          "type": "uint256"
        },
        {
          "internalType": "uint256",
          "name": "_triggerWindow",
          "type": "uint256"
        },
        {
          "internalType": "uint256",
          "name": "_secondsLeft",
          "type": "uint256"
        },
        {
          "internalType": "uint256",
          "name": "_ethHeld",
          "type": "uint256"
        }
      ],
      "stateMutability": "view",
      "type": "function"
    },
    {
      "inputs": [
        {
          "internalType": "uint256",
          "name": "requestId",
          "type": "uint256"
        },
        {
          "internalType": "bytes",
          "name": "cleartexts",
          "type": "bytes"
        },
        {
          "internalType": "bytes",
          "name": "decryptionProof",
          "type": "bytes"
        }
      ],
      "name": "withdrawCallback",
      "outputs": [
        {
          "internalType": "bool",
          "name": "",
          "type": "bool"
        }
      ],
      "stateMutability": "nonpayable",
      "type": "function"
    },
    {
      "stateMutability": "payable",
      "type": "receive"
    }
  ],
  "bytecode": "0x60e060405260405162001f0f38038062001f0f83398101604081905262000026916200053f565b62000181620000c7604080516080810182526000808252602082018190529181018290526060810191909152506040805160808101825273687820221192c5b662b25367f70076a37bc79b6c815273848b0066793bcc60346da1f49049357399b8d595602082015273a02cda4ca3a71d7c46997716f4283aa851c2881291810191909152731364cbbf2cdf5032c47d8226a6f6fbd2afcdacac606082015290565b805160008051602062001eef83398151915280546001600160a01b03199081166001600160a01b0393841617909155602083015160008051602062001ecf8339815191528054831691841691909117905560408301517f9e7b61f58c47dc699ac88507c4f5bb9f121c03808c5676a8078fe583e46497028054831691841691909117905560608301517f9e7b61f58c47dc699ac88507c4f5bb9f121c03808c5676a8078fe583e46497038054909216921691909117905550565b6001600160a01b038216620001a95760405163776cceeb60e01b815260040160405180910390fd5b62015180811015620001ce57604051639568563d60e01b815260040160405180910390fd5b336080526001600160a01b03821660a05260c081905242600155620001f460006200026c565b600081905562000204906200028a565b506200021b6000546080516200029c60201b60201c565b50341562000264576200022e34620002b1565b60405134815233907f2da466a7b24304f47e87fa2e1e5a81b9831ce54fec19055ce277ca2f39ba42c49060200160405180910390a25b5050620005c8565b6000620002846001600160401b038316600562000300565b92915050565b6000620002988230620003a4565b5090565b6000620002aa8383620003a4565b5090919050565b6000620002be826200026c565b9050620002d4600054826200042460201b60201c565b6000819055620002e4906200028a565b50620002fb6000546080516200029c60201b60201c565b505050565b60008051602062001ecf83398151915254604051639cd07acb60e01b815260009160008051602062001eef833981519152916001600160a01b0390911690639cd07acb906200035690879087906004016200057b565b6020604051808303816000875af115801562000376573d6000803e3d6000fd5b505050506040513d601f19601f820116820180604052508101906200039c9190620005ae565b949350505050565b600060008051602062001eef8339815191528054604051635ca4b5b160e11b8152600481018690526001600160a01b03858116602483015292935091169063b9496b6290604401600060405180830381600087803b1580156200040657600080fd5b505af11580156200041b573d6000803e3d6000fd5b50505050505050565b6000826200043b576200043860006200026c565b92505b8162000450576200044d60006200026c565b91505b6200045e8383600062000465565b9392505050565b60008082156200047b5750600160f81b6200047f565b5060005b600060008051602062001eef833981519152600181015460405163022f65e760e31b815260048101899052602481018890527fff00000000000000000000000000000000000000000000000000000000000000851660448201529192506001600160a01b03169063117b2f38906064016020604051808303816000875af11580156200050f573d6000803e3d6000fd5b505050506040513d601f19601f82011682018060405250810190620005359190620005ae565b9695505050505050565b600080604083850312156200055357600080fd5b82516001600160a01b03811681146200056b57600080fd5b6020939093015192949293505050565b8281526040810160548310620005a157634e487b7160e01b600052602160045260246000fd5b8260208301529392505050565b600060208284031215620005c157600080fd5b5051919050565b60805160a05160c051611867620006686000396000818161034201528181610571015281816107080152610e600152600081816102f6015281816105d4015281816106ce0152818161082501526108d901526000818161011d015281816103e4015281816104c0015281816106ac0152818161093d01528181610ab301528181610adc01528181610b8e01528181610bf30152610cf801526118676000f3fe60806040526004361061010d5760003560e01c806355d97cf811610095578063b05c7d9111610064578063b05c7d9114610406578063b3423eec14610426578063d0e30db01461043b578063da1f12ab14610443578063f3a2646d1461045857600080fd5b806355d97cf8146103835780635c36b186146103a3578063741c8907146103b85780638da5cb5b146103d257600080fd5b806324a8166e116100dc57806324a8166e146102645780632760c57e146102ce57806338af3eed146102e45780634458bcfd14610330578063480628f81461036457600080fd5b8063094a106e146101e1578063176161c11461020a57806317b86a791461023a5780632192caeb1461024f57600080fd5b366101dc57336001600160a01b037f00000000000000000000000000000000000000000000000000000000000000001614801561014d575060025460ff16155b156101da5734600003610173576040516356316e8760e01b815260040160405180910390fd5b6001600160401b0334111561019b57604051630625040160e01b815260040160405180910390fd5b6101a434610490565b60405134815233907f2da466a7b24304f47e87fa2e1e5a81b9831ce54fec19055ce277ca2f39ba42c49060200160405180910390a25b005b600080fd5b3480156101ed57600080fd5b506101f760035481565b6040519081526020015b60405180910390f35b34801561021657600080fd5b5060025461022a9062010000900460ff1681565b6040519015158152602001610201565b34801561024657600080fd5b506101f76104e9565b34801561025b57600080fd5b506101da6104f8565b34801561027057600080fd5b50610279610691565b604080516001600160a01b039a8b1681529990981660208a0152951515968801969096529215156060870152901515608086015260a085015260c084015260e083019190915261010082015261012001610201565b3480156102da57600080fd5b506101f760015481565b3480156102f057600080fd5b506103187f000000000000000000000000000000000000000000000000000000000000000081565b6040516001600160a01b039091168152602001610201565b34801561033c57600080fd5b506101f77f000000000000000000000000000000000000000000000000000000000000000081565b34801561037057600080fd5b5060025461022a90610100900460ff1681565b34801561038f57600080fd5b5061022a61039e366004611578565b61074d565b3480156103af57600080fd5b506101da610932565b3480156103c457600080fd5b5060025461022a9060ff1681565b3480156103de57600080fd5b506103187f000000000000000000000000000000000000000000000000000000000000000081565b34801561041257600080fd5b5061022a610421366004611578565b6109ea565b34801561043257600080fd5b506101da610be8565b6101da610ced565b34801561044f57600080fd5b506127116101f7565b34801561046457600080fd5b50600454610478906001600160401b031681565b6040516001600160401b039091168152602001610201565b600061049b82610de3565b90506104a960005482610dff565b60008190556104b790610e38565b506104e46000547f0000000000000000000000000000000000000000000000000000000000000000610e48565b505050565b60006104f3610e5b565b905090565b60025460ff161561051c576040516346b8055b60e11b815260040160405180910390fd5b60025462010000900460ff16156105465760405163871ab1b760e01b815260040160405180910390fd5b600254610100900460ff161561056f576040516355734e0960e11b815260040160405180910390fd5b7f000000000000000000000000000000000000000000000000000000000000000060015461059d91906115fa565b42116105bc576040516371e2fd1160e01b815260040160405180910390fd5b6002805461ffff19166101011790556000546105f8907f0000000000000000000000000000000000000000000000000000000000000000610e48565b506040805160018082528183019092526000916020808301908036833701905050905061062460005490565b816000815181106106375761063761160d565b602090810291909101015261065381630abb2f9f60e31b610ead565b600381905560405190815233907f161af1514e8f62b538d999d182fdb8cf1892af76700b9028eaedadf6ee957b8d906020015b60405180910390a250565b600254600154600091829182918291829182918291829182917f0000000000000000000000000000000000000000000000000000000000000000917f00000000000000000000000000000000000000000000000000000000000000009160ff808216926201000083048216926101009004909116907f000000000000000000000000000000000000000000000000000000000000000061072f610e5b565b47985098509850985098509850985098509850909192939495969798565b600254600090610100900460ff1661077b5760405160016235979b60e01b0319815260040160405180910390fd5b600354841461079d57604051631c4de6fb60e01b815260040160405180910390fd5b60025462010000900460ff16156107c75760405163871ab1b760e01b815260040160405180910390fd5b6107d2848484610ebb565b6000838060200190518101906107e89190611623565b6002805462ffff00191662010000179055600480546001600160401b03831667ffffffffffffffff199091168117909155909150156108c05760007f00000000000000000000000000000000000000000000000000000000000000006001600160a01b0316826001600160401b031660405160006040518083038185875af1925050503d8060008114610897576040519150601f19603f3d011682016040523d82523d6000602084013e61089c565b606091505b50509050806108be576040516312171d8360e31b815260040160405180910390fd5b505b6040516001600160401b03821681526001600160a01b037f000000000000000000000000000000000000000000000000000000000000000016907f38ddb901bd3b96ed1b13a01f79bd14828794361fe43673eae0c51e7e345a25a59060200160405180910390a2506001949350505050565b336001600160a01b037f0000000000000000000000000000000000000000000000000000000000000000161461097b576040516330cd747160e01b815260040160405180910390fd5b60025460ff161561099f576040516346b8055b60e11b815260040160405180910390fd5b60006109a9610e5b565b426001819055604080519182526020820183905291925033917fdcc771264ff60ea7e7d5530d00c9e91f464ff8d3f9bcebe874cf0621b651115d9101610686565b600254600090610100900460ff16610a185760405160016235979b60e01b0319815260040160405180910390fd5b6003548414610a3a57604051631c4de6fb60e01b815260040160405180910390fd5b610a45848484610ebb565b600083806020019051810190610a5b9190611623565b6002805461ff001916905590506001600160401b038116600003610a9257604051630686827b60e51b815260040160405180910390fd5b610a9c6000610de3565b6000819055610aaa90610e38565b50610ad76000547f0000000000000000000000000000000000000000000000000000000000000000610e48565b5060007f00000000000000000000000000000000000000000000000000000000000000006001600160a01b0316826001600160401b031660405160006040518083038185875af1925050503d8060008114610b4e576040519150601f19603f3d011682016040523d82523d6000602084013e610b53565b606091505b5050905080610b75576040516312171d8360e31b815260040160405180910390fd5b6040516001600160401b03831681526001600160a01b037f000000000000000000000000000000000000000000000000000000000000000016907fbae95d59332d6e1e8f1ae78e7bebdaeef072d57b731c8790a636667e3a0a87ee9060200160405180910390a250600195945050505050565b336001600160a01b037f00000000000000000000000000000000000000000000000000000000000000001614610c31576040516330cd747160e01b815260040160405180910390fd5b60025460ff1615610c55576040516346b8055b60e11b815260040160405180910390fd5b600254610100900460ff1615610c7e576040516355734e0960e11b815260040160405180910390fd5b60408051600180825281830190925260009160208083019080368337019050509050610ca960005490565b81600081518110610cbc57610cbc61160d565b60209081029190910101526002805461ff001916610100179055610ce78163b05c7d9160e01b610ead565b60035550565b336001600160a01b037f00000000000000000000000000000000000000000000000000000000000000001614610d36576040516330cd747160e01b815260040160405180910390fd5b60025460ff1615610d5a576040516346b8055b60e11b815260040160405180910390fd5b34600003610d7b576040516356316e8760e01b815260040160405180910390fd5b6001600160401b03341115610da357604051630625040160e01b815260040160405180910390fd5b610dac34610490565b60405134815233907f2da466a7b24304f47e87fa2e1e5a81b9831ce54fec19055ce277ca2f39ba42c49060200160405180910390a2565b6000610df9826001600160401b03166005610f27565b92915050565b600082610e1357610e106000610de3565b92505b81610e2557610e226000610de3565b91505b610e3183836000610fd6565b9392505050565b6000610e448230611092565b5090565b6000610e548383611092565b5090919050565b6000807f0000000000000000000000000000000000000000000000000000000000000000600154610e8c91906115fa565b9050804210610e9d57600091505090565b610ea7428261164c565b91505090565b6000610e318383600061110f565b6000610ec684611235565b90506000610ed582858561130a565b905080610ef55760405163cf6c44e960e01b815260040160405180910390fd5b60405185907f1af0453083661051f6e56e5c070792320652e612154bf9af8637bb1e7655b99d90600090a25050505050565b7f9e7b61f58c47dc699ac88507c4f5bb9f121c03808c5676a8078fe583e464970154604051639cd07acb60e01b8152600091600080516020611812833981519152916001600160a01b0390911690639cd07acb90610f8b908790879060040161165f565b6020604051808303816000875af1158015610faa573d6000803e3d6000fd5b505050506040513d601f19601f82011682018060405250810190610fce9190611691565b949350505050565b6000808215610fea5750600160f81b610fee565b5060005b6000600080516020611812833981519152600181015460405163022f65e760e31b815260048101899052602481018890526001600160f81b0319851660448201529192506001600160a01b03169063117b2f38906064016020604051808303816000875af1158015611064573d6000803e3d6000fd5b505050506040513d601f19601f820116820180604052508101906110889190611691565b9695505050505050565b60006000805160206118128339815191528054604051635ca4b5b160e11b8152600481018690526001600160a01b03858116602483015292935091169063b9496b6290604401600060405180830381600087803b1580156110f257600080fd5b505af1158015611106573d6000803e3d6000fd5b50505050505050565b7f878245876662ba28a480c5ea71726db859fb50222b0a3d7cbbc21cfa336faf0080546000805160206118128339815191528054604051637d6e912360e11b81529293926001600160a01b039091169063fadd2246906111739089906004016116e6565b600060405180830381600087803b15801561118d57600080fd5b505af11580156111a1573d6000803e3d6000fd5b5050506002820154604051633263b83b60e01b81526001600160a01b039091169150633263b83b9086906111dd9087908b908b906004016116f9565b6000604051808303818588803b1580156111f657600080fd5b505af115801561120a573d6000803e3d6000fd5b505050505061121983876113ea565b81548260006112278361172b565b919050555050509392505050565b60008181527f878245876662ba28a480c5ea71726db859fb50222b0a3d7cbbc21cfa336faf0160205260408120546060917f878245876662ba28a480c5ea71726db859fb50222b0a3d7cbbc21cfa336faf009190036112a75760405163d66ca67560e01b815260040160405180910390fd5b6000838152600182016020908152604091829020805483518184028101840190945280845290918301828280156112fd57602002820191906000526020600020905b8154815260200190600101908083116112e9575b5050505050915050919050565b6000808351602061131b91906115fa565b6113269060206115fa565b90506000848260405160200161133d929190611768565b6040516020818303038152906040529050600061136560008051602061181283398151915290565b60038101546040516378542ead60e01b81529192506001600160a01b0316906378542ead9061139c908a9086908a906004016117b6565b6020604051808303816000875af11580156113bb573d6000803e3d6000fd5b505050506040513d601f19601f820116820180604052508101906113df91906117ef565b979650505050505050565b60008281527f878245876662ba28a480c5ea71726db859fb50222b0a3d7cbbc21cfa336faf0160205260409020547f878245876662ba28a480c5ea71726db859fb50222b0a3d7cbbc21cfa336faf00901561145857604051633f06d22b60e01b815260040160405180910390fd5b6000838152600182016020908152604090912083516114799285019061147f565b50505050565b8280548282559060005260206000209081019282156114ba579160200282015b828111156114ba57825182559160200191906001019061149f565b50610e449291505b80821115610e4457600081556001016114c2565b634e487b7160e01b600052604160045260246000fd5b600082601f8301126114fd57600080fd5b81356001600160401b0380821115611517576115176114d6565b604051601f8301601f19908116603f0116810190828211818310171561153f5761153f6114d6565b8160405283815286602085880101111561155857600080fd5b836020870160208301376000602085830101528094505050505092915050565b60008060006060848603121561158d57600080fd5b8335925060208401356001600160401b03808211156115ab57600080fd5b6115b7878388016114ec565b935060408601359150808211156115cd57600080fd5b506115da868287016114ec565b9150509250925092565b634e487b7160e01b600052601160045260246000fd5b80820180821115610df957610df96115e4565b634e487b7160e01b600052603260045260246000fd5b60006020828403121561163557600080fd5b81516001600160401b0381168114610e3157600080fd5b81810381811115610df957610df96115e4565b828152604081016054831061168457634e487b7160e01b600052602160045260246000fd5b8260208301529392505050565b6000602082840312156116a357600080fd5b5051919050565b60008151808452602080850194506020840160005b838110156116db578151875295820195908201906001016116bf565b509495945050505050565b602081526000610e3160208301846116aa565b83815260606020820152600061171260608301856116aa565b905063ffffffff60e01b83166040830152949350505050565b60006001820161173d5761173d6115e4565b5060010190565b60005b8381101561175f578181015183820152602001611747565b50506000910152565b6000835161177a818460208801611744565b9190910191825250602001919050565b600081518084526117a2816020860160208601611744565b601f01601f19169290920160200192915050565b6060815260006117c960608301866116aa565b82810360208401526117db818661178a565b90508281036040840152611088818561178a565b60006020828403121561180157600080fd5b81518015158114610e3157600080fdfe9e7b61f58c47dc699ac88507c4f5bb9f121c03808c5676a8078fe583e4649700a2646970667358221220f1bc4cf665161e135e727681e63163aa747c726582619cb6cf997b018ec18a2264736f6c634300081800339e7b61f58c47dc699ac88507c4f5bb9f121c03808c5676a8078fe583e46497019e7b61f58c47dc699ac88507c4f5bb9f121c03808c5676a8078fe583e4649700",
  "linkReferences": {},
  "deployedLinkReferences": {}
}